:100000000C94DF000C9407010C9407010C94070179
:100010000C9407010C9407010C9407010C94070140
:100020000C9407010C9407010C940C100C947B1099
:100030000C9407010C9407010C9407010C94070120
:100040000C9407010C9407010C9407010C94070110
:100050000C9407010C9407010C9407010C94AD1249
:100060000C9407010C9407010C9407010C940701F0
:100070000C9407010C9407010C9407010C940701E0
:100080000C9407010C9407010C9407010C940701D0
:100090000C94F7120C9407010C9407010C940701BF
:1000A0000C9407010C9407010C9407010000000058
:1000B000250028002B002E00310000000000230046
:1000C000260029002C002F000000000200090F006C
:1000D00000030401000C000000000000000000000C
:1000E00000000000000000080B00020202000009EE
:1000F0000400000102020000052400100105240193
:1001000001010424020605240600010705810310ED
:10011000004009040100020A000000070502024035
:1001200000000705830240000004030904120100D7
:1001300002EF020140412337800001010203014127
:10014000726475696E6F204C4C430041726475692E
:100150006E6F204D6963726F0031323A30353A303C
:1001600039004D61792020352032303233000000D3
:100170000000240027002A002D003000040802019E
:1001800010408040102040804080080204018040E0
:1001900020100201108010204040200404040404B8
:1001A000030405020202020403020202020606061A
:1001B000060606040402020204041614711811242F
:1001C0001FBECFEFDAE0DEBFCDBF22E0AAE6B1E08E
:1001D00001C01D92A63FB207E1F711E0A0E0B1E037
:1001E000EAE8F9E302C005900D92AA36B107D9F703
:1001F00010E0CEEDD0E004C02197FE010E94C01AAD
:10020000CD3DD107C9F70E947A140C94B81C0C9408
:100210000000FC018091E801882311F13FB7F894B8
:1002200082E08093E9002091F200822F90E018167E
:10023000190614F481E090E0882339F0289A44E606
:100240004093E7014091F1004083222339F020914F
:10025000F200211103C02BE62093E8003FBF089570
:100260008FEF9FEF08950895089508952FB7F8949C
:1002700083E08093E9009091E800892F807295FFD8
:1002800004C09091F20080E4891B2FBF08958091F3
:10029000D80181110DC082E08093D40184E0809365
:1002A000D5011092D7011092D60181E08093D80138
:1002B00084ED91E008954091B9015091BA012091E7
:1002C000B7013091B80142175307B4F49091E80098
:1002D0009570E1F39091E80092FD19C08093F100D0
:1002E0008091B9019091BA0101968F739927892B5A
:1002F00019F48EEF8093E8008091B9019091BA01D2
:1003000001969093BA018093B90181E0089580E04D
:100310000895EF92FF920F931F93CF93DF93F82EE0
:10032000192FE62E042F81E0860F880F0E945B01B3
:1003300083E00E945B01CF2DD12FEC0EFD2EF11C2E
:10034000CE15DF05B9F007FF13C0FE0184910E94AE
:100350005B01182F80E00E945B01812321968111AF
:10036000EFCFDF91CF911F910F91FF90EF90089504
:100370008881EDCF81E0F5CFDF92EF92FF920F936E
:100380001F93CF93DF93D82E8A01EB017B01E40EFC
:10039000F51ECE15DF0559F0D7FE12C0FE0184917F
:1003A0000E945B0121968111F4CF0FEF1FEFC8016E
:1003B000DF91CF911F910F91FF90EF90DF90089503
:1003C0008881EECF0F931F93CF93DF931F92CDB70A
:1003D000DEB782E0898342E450E067EE70E080E8B7
:1003E0000E94BC010E944701DC0112960D911C91F4
:1003F0000115110589F0D801ED91FC910280F3817E
:10040000E02DBE016F5F7F4FC801099597FD04C0C5
:10041000F80100851185ECCF89810F90DF91CF9194
:100420001F910F910895615030F02091F100FC016F
:1004300020830196F8CF289A84E68093E7010895F7
:10044000CF93DF931F92CDB7DEB76983DC01ED91C7
:10045000FC910280F381E02D41E050E0BE016F5F2E
:100460007F4F09950F90DF91CF910895682F8BE50D
:1004700092E00C94200283E08093E9008091F200E6
:10048000882319F08AE38093E80008950E943601DA
:1004900090E00895CF93DF931F92CDB7DEB7FC01B4
:1004A0008485958597FD08C02FEF3FEF358724871A
:1004B0000F90DF91CF910895CE0101960E9409011E
:1004C000019719F4898190E0F3CF8FEF9FEFF0CF80
:1004D0000F931F93CF93DF931F92CDB7DEB78C019D
:1004E000FC018485958597FF0BC0CE0101960E9483
:1004F0000901019771F4898190E0F801958784875B
:10050000F801848595850F90DF91CF911F910F9110
:1005100008958FEF9FEFF1CFFC018485958597FDBE
:100520000BC09FB7F89482E08093E9008091F200BD
:100530009FBF90E0019608959FB7F89482E0809362
:10054000E9008091F2009FBF90E0089581508F30C4
:1005500008F047C0E82FF0E0E055FD4F0C94C01ABA
:10056000CD02D102BF02C502C902F102F102F102BD
:10057000D402DA02DE02E202E802F102EC02809129
:1005800080008F77809380000895809180008F7D18
:10059000F9CF80918000877FF5CF84B58F7784BDB8
:1005A000089584B58F7DFBCF809190008F778093E5
:1005B00090000895809190008F7DF9CF80919000F8
:1005C000877FF5CF8091C0008F778093C00008951A
:1005D0008091C0008F7DF9CF8091C200877F80938A
:1005E000C2000895CF93DF93282F30E0F901E8533C
:1005F000FF4F8491F901E458FE4FD491F901E5567B
:10060000FE4FC491CC23A1F081110E94A602EC2FD1
:10061000F0E0EE0FFF1FE654FF4FA591B491EC916F
:10062000ED2381E090E009F480E0DF91CF9108951F
:1006300080E090E0FACF1F93CF93DF93282F30E034
:10064000F901E853FF4F8491F901E458FE4FD4912A
:10065000F901E556FE4FC491CC23A9F0162F811164
:100660000E94A602EC2FF0E0EE0FFF1FE455FF4FB3
:10067000A591B4918FB7F894EC91111108C0D09561
:10068000DE23DC938FBFDF91CF911F910895DE2B86
:10069000F8CF8091C3028F3F19F061E00C941B03E7
:1006A00008958091B8029091B902892B41F0E091B0
:1006B000BA02F091BB02908181819CBD8DBD809179
:1006C000C3028F3F19F060E00C941B030895CF9391
:1006D000DF9390E0FC01E458FE4F249185569E4F35
:1006E000FC0184918823D1F090E0880F991FFC01D0
:1006F000E259FE4FA591B491FC01E455FF4FC5911D
:10070000D49161110EC09FB7F8948C91E22FE095BF
:100710008E238C932881E223E8839FBFDF91CF91C2
:1007200008958FB7F894EC91E22BEC938FBFF6CF3E
:100730008230910538F0880F991F880F991F05970F
:100740000197F1F70895CF92DF92EF92FF920F9306
:100750001F93CF93DF932091B8023091B902232BDE
:1007600079F08EBD0DB407FEFDCFDEB48D2DDF9187
:10077000CF911F910F91FF90EF90DF90CF90089550
:100780002091C0023091C102C1E0232B09F0C0E8E2
:10079000CC24C394982F9C2309F0C12CD82F2091EE
:1007A000BC023091BD024091BE025091BF0260E296
:1007B00071EA87E090E00E949E1A122FDD2E00E081
:1007C000E22EF12C112319F0C7010E9498038091A9
:1007D000C202877F09F054C08091C5028F3FA1F00B
:1007E0009D2F9C2381E009F480E08C1569F0E09155
:1007F000C702F091C8028091CF029923D9F190816C
:10080000892B8083CC24C394E091C902F091CA0261
:1008100080819091D102892B8083112319F0C70127
:100820000E9498038091C6028F3F51F0E091CB0265
:10083000F091CC0280819091D002892309F00C2B99
:10084000E091C902F091CA0290818091D102809515
:10085000892380838091C6028F3F09F0D02E80913A
:10086000C0029091C102892B09F047C0CC0FC11181
:10087000A9CF7CCF9081809589238083C12CC4CF60
:10088000E091C902F091CA0280819091D102892B36
:100890008083112319F0C7010E9498038091C5023B
:1008A0008F3F61F0E091C702F091C8028091CF02C2
:1008B0009D2F9C23F1F09081892B8083E091C902C8
:1008C000F091CA0290818091D10280958923808322
:1008D0008091C6028F3F09F4BDCFE091CB02F09129
:1008E000CC0280819091D002892309F4B3CF0C2BE4
:1008F000B1CF908180958923E0CFC695B8CFEF9294
:10090000FF920F931F93CF93DF93EC017B018A013A
:100910000E94510388810E94A303E7010E0D1F1D51
:10092000C017D10729F08FEF0E94A3038993F8CF56
:100930000E94490381E0DF91CF911F910F91FF90B9
:10094000EF900895CF93DF9300D0CDB7DEB71A8232
:10095000898341E050E0BE016E5F7F4FCE0101967A
:100960000E947F048A810F900F90DF91CF910895AC
:10097000CF93DF93D82FC62F0E9451038D2F80680D
:100980000E94A3038C2F0E94A303DF91CF910C94AC
:100990004903CF93C82F81E00E94A204807FCF70CB
:1009A0006C2F682B81E0CF910C94B804CF93809189
:1009B000C3028F3F41F061E00E94670361E08091D4
:1009C000C3020E941B038091B8029091B902892B47
:1009D00009F45FC0CFB7F8948091E601811127C078
:1009E000ECEAF1E08491EDE8F1E09491E82FF0E099
:1009F000EE0FFF1FE259FE4FA591B491EC91E92350
:100A000021F461E081E10E941B0361E081E10E9429
:100A100067038CB580618CBD8CB580648CBD61E052
:100A20008FE00E94670361E080E10E94670380918C
:100A3000E6018F5F8093E601CFBF81E08093D30210
:100A40008093D40260E082E00E94B80460E180E01C
:100A50000E94B80460E089E00E94B80483E090E05E
:100A60000E94C9041092D6021092D50280E00E9422
:100A7000A2042091D5023091D602682F2230310590
:100A800061F56F7B606880E00E94B80481E0CF91DF
:100A9000089561E08091C4020E9467038091C202C0
:100AA0008B7F60E009F061E08091C4020E941B032B
:100AB0008091C5028F3F41F061E00E94670361E0D1
:100AC0008091C5020E941B038091C6028F3F09F4EA
:100AD000B4CF60E00E946703B0CF6F776064D3CF7C
:100AE0003FB7F8948091B3019091B401A091B50102
:100AF000B091B60126B5A89B05C02F3F19F001960D
:100B0000A11DB11D3FBFBA2FA92F982F8827BC0167
:100B1000CD01620F711D811D911D42E0660F771F8F
:100B2000881F991F4A95D1F708958F929F92AF928F
:100B3000BF92CF92DF92EF92FF926B017C010E94F5
:100B400070054B015C01C114D104E104F104B9F05A
:100B50000E947005681979098A099B09683E7340EB
:100B60008105910580F321E0C21AD108E108F1085E
:100B700088EE880E83E0981EA11CB11CE4CFFF9084
:100B8000EF90DF90CF90BF90AF909F908F9008959F
:100B90008F929F92AF92BF92CF92DF92EF92FF928D
:100BA0000F931F93CF93DF936C017B018A01809198
:100BB0000B01882309F45CC08091E801882309F4C3
:100BC00057C08091BD0180FF05C08091E000826028
:100BD0008093E000E801B12C8AEFA82E93E0892EE3
:100BE0002AE3922E209711F4BB20D9F10E943601FE
:100BF00081110AC0AA94AA20D9F161E070E080E0D6
:100C000090E00E949505EECF8C171D0611F00CF0B8
:100C10008C2F9FB7F8948092E9002091E80025FD81
:100C200002C09FBFDFCF282F30E0C21BD30BF701DC
:100C3000815020F041914093F100FACFE20EF31E73
:100C4000BB2021F09092E800B12CEBCF8091E8001E
:100C500085FDE7CF9092E800BB24B394209709F379
:100C6000F3CF5D9A84E68093BC01101611063CF028
:100C700081E090E0F6019383828310E000E0C801F8
:100C8000DF91CF911F910F91FF90EF90DF90CF9068
:100C9000BF90AF909F908F900895FC014481558143
:100CA000608171818BE592E00C94C8052FB7F894B0
:100CB0006091AF017091B0018091B1019091B2014A
:100CC0002FBF089520918B01260F3327331F213228
:100CD0003105ECF420915502FC0190E080E02430D5
:100CE00069F082E00895A0918B012191AC014559F2
:100CF0005E4FA40FB52FB11D2C930196861798F364
:100D000080918B01680F60938B0180E0089581E0F2
:100D100008951092550281E08093340210922F02C0
:100D200061E082E00E941B0361E083E00E941B03FC
:100D3000E9EBF0E080818E7F808380818D7F8083EE
:100D400088E48093B80085E48093BC0008951092F5
:100D5000EA011092E9011092EC0110920E020E9439
:100D6000890683E391E09093E5018093E40184E3B5
:100D700091E09093E3018093E2010895CF93DF9394
:100D800091E090936A018823B9F0C091B800D091A6
:100D9000BA008091BC008A7B8093BC0060E082E056
:100DA0000E941B0360E083E00E941B030E948906EF
:100DB000D093BA00C093B800DF91CF9108958F927D
:100DC0009F92AF92BF92CF92DF92EF92FF920F93DA
:100DD0001F93CF93DF93D82FC62F142F613208F0C3
:100DE0009CC00E9470056B017C01809155028111AD
:100DF0006FC081E080935502109334029FEF90936F
:100E00003302109232029C0F909331028093300291
:100E100080913002DD0FD82BD093300280912F02C9
:100E2000813009F07CC010922F020E9470056B0186
:100E30007C01809130028093BB0080915702909199
:100E40005802A0915902B0915A02892B8A2B8B2B00
:100E5000A1F00E9470050091570210915802209154
:100E6000590230915A026C197D098E099F090617A3
:100E700017072807390708F44CC08091BC0083FD90
:100E8000D8CF85EC8093BC000E9470056B017C017B
:100E900080915502813009F444C0809132028C1750
:100EA00010F4C0913202EFE0F2E0A5E3B2E080E09E
:100EB0008C1359C08C2FDF91CF911F910F91FF9010
:100EC000EF90DF90CF90BF90AF909F908F9008955C
:100ED0008091570290915802A0915902B0915A0204
:100EE000892B8A2B8B2B09F480CF0E947005809070
:100EF000570290905802A0905902B0905A026C1973
:100F00007D098E099F0986169706A806B90608F07E
:100F10006CCF809156020E94BE06C0E0CBCF85EE1A
:100F2000B1CF8091570290915802A0915902B0918F
:100F30005A02892B8A2B8B2B09F4AACF0E947005A9
:100F400000915702109158022091590230915A0293
:100F50006C197D098E099F0906171707280739079D
:100F600008F096CFD6CF91919D938F5FA1CF8F92AE
:100F70009F92AF92BF92CF92DF92EF92FF920F9328
:100F80001F93CF93DF93D0910E02D13208F0D7C0D8
:100F9000182FC0910D020E9470056B017C01809199
:100FA000550281116BC082E0809355021093340288
:100FB0008FEF8093330210923202D0933102ADEE64
:100FC000B1E0EFE0F2E080E0D81391C0109230027F
:100FD00080913002CC0FC82BC093300280912F0239
:100FE000813009F088C010922F020E9470056B01B9
:100FF0007C01809130028093BB00809157029091D8
:101000005802A0915902B0915A02892B8A2B8B2B3E
:10101000A1F00E9470050091570210915802209192
:10102000590230915A026C197D098E099F090617E1
:1010300017072807390708F442C08091BC0083FDD8
:10104000D8CF85EC8093BC000E9470056B017C01B9
:1010500080915502823009F450C0809133028F3F55
:1010600009F46FC080913302803209F46CC0809122
:101070003302803309F469C084E026C080915702AE
:1010800090915802A0915902B0915A02892B8A2B53
:101090008B2B09F484CF0E947005809057029090AA
:1010A0005802A0905902B0905A026C197D098E091D
:1010B0009F0986169706A806B90608F070CF80919A
:1010C00056020E94BE0685E01092EC0110920E02BC
:1010D0001092EB01DF91CF911F910F91FF90EF9054
:1010E000DF90CF90BF90AF909F908F9008959D918B
:1010F00091938F5F69CF85EEA5CF80915702909134
:101100005802A0915902B0915A02892B8A2B8B2B3D
:1011100009F49ECF0E947005009157021091580269
:101120002091590230915A026C197D098E099F094C
:10113000061717072807390708F08ACFC0CF81E0C4
:10114000C3CF80E0C1CF82E0BFCF83E0BDCFCF93DC
:10115000C82F692F8091D7029091D8022091D9028F
:1011600031E03093EB0120930D021092EC011092CC
:101170000E02DC01ED91FC910190F081E02D0995CA
:101180008091D7029091D802DC01ED91FC91019001
:10119000F081E02D6C2F099581E00E94B70788232C
:1011A00031F081E88093F10280E0CF91089581E0F1
:1011B000FCCFE091EA018091E901E81730F4F0E01A
:1011C000EB5CFD4F808190E008958FEF9FEF0895D5
:1011D0009091EA018091E9012FEF3FEF981748F4D1
:1011E000E92FF0E0EB5CFD4F208130E09F5F9093B2
:1011F000EA01C90108958091E9019091EA01891BF2
:10120000990B0895CF92DF92EF92FF920F931F9365
:10121000CF93DF937C01CB018A012091EB01222344
:1012200089F0EB016B01C40ED51ECC15DD0569F00C
:101230006991D701ED91FC910190F081E02DC701FA
:101240000995F3CF642F0E946206C801DF91CF9108
:101250001F910F91FF90EF90DF90CF900895CF9363
:10126000DF931F92CDB7DEB769832091EB01222374
:10127000F9F020910E02203258F021E030E0FC011C
:101280003383228390E080E00F90DF91CF91089527
:101290008091EC01E82FF0E0E351FE4F99819083BB
:1012A0008F5F8093EC0180930E0281E090E0ECCFA1
:1012B00061E0CE0101960E946206F7CF90E080E0E7
:1012C00008951F93CF93DF93EA01122FDC0111964B
:1012D0008D919C91DC01ED91FC910280F381E02DD8
:1012E0000995C817D90729F4812F0E94B70791E003
:1012F000811190E0892FDF91CF911F910895CF93B5
:10130000DF93EC018B818823A1F0888191E0909399
:10131000EB0180930D021092EC0110920E0281E01D
:101320000E94B70791E0811190E0892FDF91CF9162
:1013300008950E94A70681E08B83CE010E947F0959
:10134000982F8111E2CFF1CFFC01908190539A3018
:1013500008F090E0818180532AE0929F800D112453
:10136000089581E00E94A2048F7090910C0198175B
:1013700029F086E08093200180E008958FE00E94AC
:10138000A204882311F087E0F5CF81E008958091D1
:10139000CB01882351F086E00E94F202892B29F4C8
:1013A0008BE08093200180E008958091CA0188231A
:1013B00039F085E00E94F202892B11F48CE0F1CF24
:1013C00061E084E00E941B0360E084E00E941B0354
:1013D00081E00895EF92FF920F931F93CF93DF93D5
:1013E000182F062FE72E41E0682F8091D9020E9426
:1013F000DF061092EA018093E901181315C0F02E60
:10140000C02FDE2D8091D7029091D802DC01ED91A2
:10141000FC910284F385E02D099589938C2F8F1917
:10142000811780F381E004C082E88093F10280E0BC
:10143000DF91CF911F910F91FF90EF900895CF937F
:10144000DF9300D01F92CDB7DEB719821A821B82BC
:101450008DE293EF0E94A708811102C080E037C09F
:10146000BE016F5F7F4F83E00E94EA098823B1F3DA
:101470004B819981892F809528E031E387FF03C054
:10148000880F832701C0880F2150C1F72A81822746
:1014900038E051E387FF03C0880F852701C0880F1C
:1014A0003150C1F7481721F087E88093F102D6CF79
:1014B000892F90E0982F8827820F911D019671F255
:1014C0009091F1021092F10281E09111C7CF0F903B
:1014D0000F900F90DF91CF9108956F927F928F922E
:1014E0009F92AF92BF92CF92DF92EF92FF920F93B3
:1014F0001F93CF93DF936C013B017A0110E000E072
:10150000D60114968D919C91E701C01BD10B8C17CD
:101510009D0708F4EC0141E0C7018C1B9D0B0817E7
:10152000190708F440E06C2FC13208F060E2F601C0
:1015300080810E94DF061092EA018093E9018C17F6
:101540001D0679F54301800E911E5401C5018819CD
:1015500099098C179D0778F4D60111968D919C916D
:10156000DC01ED91FC910284F385E02D0995F501F4
:1015700081935F01EBCF0C0F1D1F0E151F0508F4A3
:10158000BFCF81E0DF91CF911F910F91FF90EF903E
:10159000DF90CF90BF90AF909F908F907F906F9093
:1015A000089580E0EFCFFC0101900020E9F731972A
:1015B000AF01481B590BBC018BE592E00C94C805A8
:1015C000CF93DF938091E0019091E101009711F0BA
:1015D0000E94621B86E090E00E94C61AEC0188E639
:1015E00088838BEA92E09A8389831B8280E290E071
:1015F0009D838C83D093E101C093E0010E94A706F4
:1016000081E08B83CE01DF91CF910C947F09FC01A7
:1016100080819181009711F00C94621B0895EF92E4
:10162000FF920F931F93CF93DF93EC017B01FB019C
:1016300001900020E9F731978F01061B170B888175
:101640009981009729F02A813B812017310788F47E
:10165000B8016F5F7F4F0E94EB1B0097B9F0998331
:1016600088831B830A832C813D81232B11F4FC0189
:1016700010821D830C83B70188819981DF91CF91FE
:101680001F910F91FF90EF900C94B11C888199816C
:10169000009711F00E94621B198218821D821C8221
:1016A0001B821A82DF91CF911F910F91FF90EF90D3
:1016B00008950F931F93CF93DF93CDB7DEB729978C
:1016C0000FB6F894DEBF0FBECDBF8C01862FF80198
:1016D0001182108213821282158214824AE0BE01A6
:1016E0006F5F7F4F90E00E940719BE016F5F7F4FD1
:1016F000C8010E940F0B29960FB6F894DEBF0FBEEB
:10170000CDBFDF91CF911F910F9108950F931F933C
:10171000CF93DF93CDB7DEB761970FB6F894DEBFF6
:101720000FBECDBF8C01CB01F80111821082138254
:101730001282158214824AE0BE016F5F7F4F0E94C1
:101740000719BE016F5F7F4FC8010E940F0B6196A2
:101750000FB6F894DEBF0FBECDBFDF91CF911F91C2
:101760000F910895CF92DF92EF92FF920F931F9304
:10177000CF93DF9300D000D000D01F92CDB7DEB75B
:1017800019820091E0011091E101F80184819581B5
:10179000892BE9F0808191E09093EB0180930D0219
:1017A0001092EC0110920E0220E041E050E0BE01E8
:1017B0006F5F7F4FC8010E946109882341F047E0B5
:1017C00050E0BE016F5F7F4FC8010E946D0A298102
:1017D0002F77822F90E034E0959587953A95E1F741
:1017E000982F990F990F182F191B110F120F2A817B
:1017F000822F90E044E0959587954A95E1F7982FE0
:10180000990F990F082F091B000F020F2B81822FB0
:1018100090E054E0959587955A95E1F7982F990FA8
:10182000990FF82EF91AFF0CF20E2D81822F90E0FD
:1018300064E0959587956A95E1F7982F990F990F30
:10184000E82EE91AEE0CE20E2E81822F90E074E071
:10185000959587957A95E1F7982F990F990FD82E3E
:10186000D91ADD0CD20ECF8082E591E00E94D30A16
:101870006C2D70E0E4E075956795EA95E1F7862FA9
:10188000880F880F681B660F6C0D70E06053784FEF
:10189000CE0101960E94860BCE0101960E944D0654
:1018A000CE0101960E94070BF9E0FD1518F080E3C8
:1018B0000E9436026D2DCE0101960E94590BCE0179
:1018C00001960E944D06CE0101960E94070B89E009
:1018D0008E1518F080E30E9436026E2DCE0101961F
:1018E0000E94590BCE0101960E944D06CE01019631
:1018F0000E94070BE9E0EF1518F080E30E94360222
:101900006F2DCE0101960E94590BCE0101960E94C7
:101910004D06CE0101960E94070B0A3018F480E3B1
:101920000E943602602FCE0101960E94590BCE0113
:1019300001960E944D06CE0101960E94070B1A30B7
:1019400018F480E30E943602612FCE0101960E94B6
:10195000590BCE0101960E944D06CE0101960E94C0
:10196000070B81E027960FB6F894DEBF0FBECDBF00
:10197000DF91CF911F910F91FF90EF90DF90CF906B
:101980000895CF92DF92EF92FF920F931F93CF9320
:10199000DF9300D000D000D0CDB7DEB78091C0017A
:1019A000811150C086E194E20E94A70881115DC0B8
:1019B0006091ED027091EE0290E080E00E9431199A
:1019C00028EC30E048EC5AE30E946E1920E030E049
:1019D00048EC52E40E946E190E94631A6B018B015D
:1019E00085E591E00E94D30A80E1C81687E2D80617
:1019F000B8F480E30E94360288EEC81683E0D80669
:101A000078F480E30E9436020436110548F480E33E
:101A10000E9436020A30110518F480E30E94360253
:101A2000B601CE0101960E94860BCE0101960E945E
:101A30004D06CE0101960E94070B8AE00E943602F5
:101A400081E004C00E94B20B8111ACCF26960FB684
:101A5000F894DEBF0FBECDBFDF91CF911F910F91E4
:101A6000FF90EF90DF90CF90089564E070E080E009
:101A700090E00E949505BE016F5F7F4F86E00E9457
:101A8000EA09882309F494CF898190E0982F882768
:101A90002A81820F911D9093F0028093EF028C8136
:101AA00090E0982F88272D81820F911D9093EE0250
:101AB0008093ED020E9456066093DB027093DC0275
:101AC0008093DD029093DE0273CF85ED8093BC009E
:101AD0008091570290915802A0915902B0915A02F8
:101AE0000796A11DB11D23E0B695A79597958795FB
:101AF0002A95D1F72091BC0024FD03C01092550215
:101B00000895409157025091580260915902709186
:101B10005A02452B462B472B69F30097A105B105C7
:101B200041F025E32A95F1F700000197A109B109D9
:101B3000E1CF809156020C94BE06CF92DF92EF92D5
:101B4000FF92CF93DF93CDB7DEB7A8970FB6F89487
:101B5000DEBF0FBECDBF8091C001811166C08091F4
:101B6000D5029091D602892B09F470C019821A828D
:101B70001B828CE088A743E050E0BE016F5F7F4F7F
:101B8000CE0188960E947F0469817A817627672733
:101B90007627CB01B0E0A0E0BA2FA92F982F882795
:101BA0002B81822BA7FDBF6FBC01CD0125E0959550
:101BB0008795779567952A95D1F70E94331920E08C
:101BC00030E040E05CE30E946E196B017C0188E527
:101BD00091E00E94D30A1BA21AA21DA21CA21FA25E
:101BE0001EA220E030E048EC52E4C701B6010E949A
:101BF0006E190E94631A2AE0AE014F5F5F4F0E9488
:101C0000E518BE016F5F7F4FCE0182960E940F0BD9
:101C1000CE0182960E944D06CE0182960E94070B4D
:101C20008AE00E94360281E004C00E94B20B81115A
:101C300096CFA8960FB6F894DEBF0FBECDBFDF914A
:101C4000CF91FF90EF90DF90CF90089580E00E94B9
:101C5000A2048F77682F606480E00E94B8040E941D
:101C600056066B017C018091D5029091D6020297B5
:101C700009F47CCF80E00E94A20486FF77CF0E9407
:101C800056066C197D098E099F096B3F7105810508
:101C9000910538F46AE070E080E090E00E949505DC
:101CA000E2CFC12CD12C80ECE82E8FE7F82E8FCF1D
:101CB000CF92DF92EF92FF920F931F93CF93DF9318
:101CC00000D000D000D0CDB7DEB77B01882309F467
:101CD0003FC06AE070E080E090E00E9495058BE5EF
:101CE00092E00E944A02C82E8BE592E00E944A02CE
:101CF000D82E8BE592E00E948C02892B29F08BE58F
:101D000092E00E944A02F5CF81E3C81203C0E9E3E2
:101D1000DE16F1F08BE591E00E94D30A809120015C
:101D20008A3018F480E30E94360260912001CE01CF
:101D300001960E94590BCE0101960E944D06CE01DC
:101D400001960E94070B8AE00E94360280E07EC066
:101D500060E088E00E941B03F7011082E0912001FF
:101D6000E250E33198F7F0E0E854F14F0C94C01AD8
:101D7000CB0E010F090F350F380F380F3B0F3E0FF9
:101D8000410F440F440F210F210F210F210FA60EE9
:101D9000A60EA60E210F8FEF9FEF909368028093FF
:101DA00067028EE591E00E94D30A113311F40033EB
:101DB00019F10E9456068BE592E00E948C02892B55
:101DC000A1F36AE070E080E090E00E9495058BE569
:101DD00092E00E944A02182F8BE592E00E944A028C
:101DE000082F8BE592E00E948C02892BF1F28BE5A3
:101DF00092E00E944A02F5CF82E691E00E94D30A67
:101E000024C00E94E00A81111CC0A0CF86E691E0A8
:101E1000F5CF84E48093D9028BEA92E09093D802C4
:101E20008093D7020E94A70682EA90E30E94A70847
:101E3000882309F48BCF61E070E080E090E00E949D
:101E4000950580911F018111E1CF81E026960FB6A3
:101E5000F894DEBF0FBECDBFDF91CF911F910F91E0
:101E6000FF90EF90DF90CF9008950E94D604CBCFE3
:101E70000E94B109C8CF0E94C10CC5CF0E941F0AA1
:101E8000C2CF0E949D0DBFCF0E94C709BCCF4F9209
:101E90005F926F927F92AF92BF92CF92DF92EF925A
:101EA000FF920F931F93CF93DF93CDB7DEB72897A1
:101EB0000FB6F894DEBF0FBECDBF60E087E00E9492
:101EC0001B0318861F8210912001188780911F0123
:101ED0008823D1F08BE591E00E94D30A1A3018F4E0
:101EE00080E30E94360260912001CE0101960E949B
:101EF000590BCE0101960E944D06CE0101960E941B
:101F0000070B8AE00E94360280E091E0980F1630BD
:101F100018F01550892FF9CF18878F830E94560625
:101F20002B013C01198210E000E0B12CAA24A394FB
:101F30000E9456066B017C01BC01A601441955099B
:101F400066097709C801B0E0A0E0481759076A0799
:101F50007B0708F12981211102C008EC10E02F5FF6
:101F60002983E7E0F0E0EC0FFD1FEB0DF11D808110
:101F700090E0880F991F2817190611F10CF18B2D8D
:101F80008A2508E017E0B11002C000E911E01982CB
:101F9000B82E260137018BE592E00E948C02892B36
:101FA000D1F489E00E94F202892B11F2BE016F5F29
:101FB0007F4F80E00E94580E882309F4B9CF13C0E8
:101FC00088E00E94F20261E0892B09F060E088E07D
:101FD0000E941B03DECFBE016F5F7F4F81E00E9436
:101FE000580E8823F1F261E087E00E941B032896D7
:101FF0000FB6F894DEBF0FBECDBFDF91CF911F911A
:102000000F91FF90EF90DF90CF90BF90AF907F90B7
:102010006F905F904F9008951F920F920FB60F929E
:1020200011248F939F938091E1009091E100937F21
:102030009093E10083FF0FC01092E90091E090932C
:10204000EB001092EC0092E39093ED001092E80107
:1020500098E09093F00082FF22C093E09093E90013
:102060009091F200992319F09AE39093E8009091EF
:10207000BC01992341F09091BC0191509093BC0117
:10208000911101C05D989091E701992341F09091E1
:10209000E70191509093E701911101C0289884FFC6
:1020A00018C08091E2008E7E81608093E200809172
:1020B000E1008F7E8093E1008091BD018E7E806182
:1020C0008093BD019F918F910F900FBE0F901F9035
:1020D000189580FFF7CF8091E2008E7E806180931B
:1020E000E2008091E1008E7E8093E1008091BD014D
:1020F0008E7E8160E5CF1F920F920FB60F92112452
:10210000CF92DF92EF92FF920F931F932F933F9303
:102110004F935F936F937F938F939F93AF93BF93EF
:10212000EF93FF93CF93DF93CDB7DEB76C97DEBF0E
:10213000CDBF1092E9008091E80083FF25C068E0E0
:10214000CE0145960E94130282EF8093E8008D89AC
:1021500087FF39C09091E80090FFFCCF982F9076D0
:1021600009F034C19E894F89588D2F89F88C9111BF
:1021700031C0803861F58091BE018093F1001092EA
:10218000F1008EEF8093E8006C960FB6F894DEBFF6
:102190000FBECDBFDF91CF91FF91EF91BF91AF9176
:1021A0009F918F917F916F915F914F913F912F916F
:1021B0001F910F91FF90EF90DF90CF900F900FBE87
:1021C0000F901F9018959EEF9093E800C7CF109244
:1021D000F100D5CF913059F48111D3CF4130510561
:1021E00081F68091BE018D7F8093BE01CACF93306E
:1021F00049F48111C6CF4130510519F68091BE01D5
:102200008260F2CF953041F48091E80080FFFCCFEE
:1022100020682093E300B5CF963009F0A9C00B8D5C
:102220001C8D22E01092E9001092BA011092B901BF
:10223000F2122EC01092B8011092B7010E94E20172
:102240001F8299E09983FA8291E09E8390EA9887B1
:102250009AEF99872091B9013091BA01275F3F4FDA
:102260003C832B838D831092E9001092BA01109267
:10227000B9011093B8010093B70149E050E0BE01E5
:102280006F5F7F4F80E00E94BC010E94E20179CF26
:102290001093B8010093B7010E944701DC01129628
:1022A0000D911C910115110509F451C1D801ED9151
:1022B000FC910480F581E02DBE016B5E7F4FC8016B
:1022C0000995009709F03EC1F80100851185EACF14
:1022D000F3E0FF120EC08F89882309F440C08230DA
:1022E00061F440E86DE08BE491E00E948901811186
:1022F00048CF81E28093EB0047CF813029F440E85A
:102300006BE08FE391E0F1CF833099F70E944701B2
:10231000DC011296ED90FC908E010F5F1F4F68015B
:10232000E114F10479F0D701ED91FC910680F78179
:10233000E02DB801C7010995080F111DF701E084D0
:10234000F184EECFD8011C92F60101900020E9F74C
:102350003197BF016C197D0940E0C601C6CF69E223
:1023600071E0FB01449150E080E80E94BC0109CF7C
:10237000973009F4BECF983021F481E08093F100CA
:1023800000CF993009F0FDCE837009F0B2CFE8E2BA
:10239000F1E081E031E096E32191222371F0809316
:1023A000E9003093EB00DF0111972C912093EC00B2
:1023B0009093ED008F5F873079F78EE78093EA0086
:1023C0001092EA008F898093E801DBCE8B8D9C8D83
:1023D0001092E9001092BA011092B9019093B801DD
:1023E0008093B701898D811192C08E899D89913A20
:1023F00049F4813209F07DCF47E050E064E071E0BC
:1024000080E0B3CF913209F074CF833269F48F89C1
:10241000988DB0E0A0E08093000190930101A0931B
:102420000201B0930301ADCE803269F48091E800DF
:1024300082FFFCCF67E084E091E00E9413028BEF03
:102440008093E8009ECE823209F09BCE8F898093E4
:102450000B01EEEFFFE7859194918B3F9C4D51F17D
:10246000E0E0F8E08091040190910501A09106015F
:10247000B0910701803B9440A105B105F1F4809132
:102480000B0180FD1AC0EE3F8AE0F80789F587E767
:1024900097E791838083809160008093BB0188E1FE
:1024A0009BE00FB6F894A895809360000FBE9093C0
:1024B000600067CEEEEFFAE0D5CF8081918187375B
:1024C000974709F05ECEA89580916000886180935F
:1024D00060008091BB0180936000EE3F2AE0F2072C
:1024E00089F08091FE0A9091FF0A9183808349CE02
:1024F000808191818737980751F29093FF0A8093EA
:10250000FE0AC5CF1092FF0A1092FE0A3ACE0E9430
:102510004701DC0112960D911C910115110509F47A
:10252000E8CED801ED91FC910190F081E02DBE0143
:102530006B5E7F4FC8010995811123CEF80100859C
:102540001185EBCF181619060CF41BCED2CEF1E094
:10255000FF12BECE6DE271E004CF1F920F920FB654
:102560000F9211242F933F938F939F93AF93BF9319
:102570008091AF019091B001A091B101B091B201F1
:102580003091AE0123E0230F2D3758F50196A11DA0
:10259000B11D2093AE018093AF019093B001A09341
:1025A000B101B093B2018091B3019091B401A091B7
:1025B000B501B091B6010196A11DB11D8093B30183
:1025C0009093B401A093B501B093B601BF91AF91C0
:1025D0009F918F913F912F910F900FBE0F901F9061
:1025E000189526E8230F0296A11DB11DD2CF1F9288
:1025F0000F920FB60F9211242F933F934F935F9337
:102600006F937F938F939F93AF93BF93EF93FF93BA
:102610008091B900887F803609F44AC0F0F588328D
:1026200009F4A7C018F5803109F49BC0B8F48823D9
:1026300009F4F9C0883009F494C0FF91EF91BF917B
:10264000AF919F918F917F916F915F914F913F914A
:102650002F910F900FBE0F901F901895883109F49D
:1026600088C0803251F78093330214C0803409F45B
:102670009DC040F48033B9F38833F9F68093330278
:1026800085ECB0C0803509F485C0883509F496C062
:10269000883499F60E94650DD0CF883909F48CC032
:1026A00038F5883729F050F4883611F0803729F64C
:1026B00083E0809355021092AD0157C0883809F429
:1026C0007BC0803919F0803809F0B7CF8091AD0117
:1026D000803208F071C0E091AD0181E08E0F8093EF
:1026E000AD018091BB00F0E0E357FE4F80833DC019
:1026F000803B39F0E0F4803A09F479C0883A09F077
:102700009CCF84E08093550210928C0110928B0133
:10271000E091E401F091E501099580918B0181112F
:102720000FC081E080938B0110926B0109C0803C47
:1027300009F4A6CF883C09F4A3CF883B09F07DCFEC
:10274000E0918C0181E08E0F80938C01F0E0E559DF
:10275000FE4F80818093BB0090918C0180918B0112
:1027600029C0809130028093BB0085EC8093BC002F
:1027700064CF9091320280913102981758F5E09120
:10278000320281E08E0F80933202F0E0E15FFD4F74
:102790008081E9CFE091320281E08E0F8093320296
:1027A0008091BB00F0E0E15FFD4F808390913202A9
:1027B000809131029817C8F285E8D8CFE0913202B3
:1027C00081E08E0F809332028091BB00F0E0E15FE8
:1027D000FD4F80838091340281115CCF81E0809332
:1027E0002F0284EA8093BC001092550226CF85EC1C
:1027F0008093BC00109255028091AD01803230F47C
:10280000E091AD01F0E0E357FE4F10826091AD0121
:1028100070E0E091E201F091E3018DE891E009952B
:102820001092AD010ACF1092330234CF1F93CF9391
:10283000DF93EBE5F2E01382128288EE93E0A0E0F2
:10284000B0E084839583A683B78322E331E03183AC
:1028500020832FEF3FEF35872487EBEAF2E01382E6
:10286000128284839583A683B78384E491E0918365
:102870008083E7EDF2E012821482158216821782BD
:10288000118E108E178A168A138214861586168664
:102890001786108A118A128A138A148A128E15E5F5
:1028A000158BC8EBD2E081E18B878FEF8E878D8708
:1028B0008C8787EB92E0998388831B8E82E090E07F
:1028C0000E94C61AFC01108311829B838A8380E4D4
:1028D00092E4AFE0B0E08C839D83AE83BF8381E060
:1028E00090E09987888784E08A871C8EDF91CF915A
:1028F0001F910895CF93DF93CDB7DEB76A970FB6D8
:10290000F894DEBF0FBECDBF789484B5826084BDDD
:1029100084B5816084BD85B5826085BD85B58160E3
:1029200085BD80916E00816080936E001092810061
:10293000809181008260809381008091810081601C
:1029400080938100809180008160809380008091DD
:1029500091008260809391008091910081608093CA
:102960009100809190008160809390008091C100DF
:1029700084608093C1008091C10082608093C10017
:102980008091C10081608093C1008091C30081600B
:102990008093C3008091C00082608093C0008091CA
:1029A000C20081608093C20080917A00846080932D
:1029B0007A0080917A00826080937A0080917A0018
:1029C000816080937A0080917A00806880937A0099
:1029D0001092E8011092BE011092BD018091D700C3
:1029E00081608093D70080EA8093D80089B58061A8
:1029F00089BD89B5826089BD09B400FEFDCF61E063
:102A000070E080E090E00E9495058091D8008F7C76
:102A100080618093D8008091E000807F8093E00007
:102A20008091E1008E7E8093E1008DE08093E20052
:102A3000559A209A5D9828980E9456066093C60180
:102A40007093C7018093C8019093C9016093D0012E
:102A50007093D1018093D2019093D3016093CC0104
:102A60007093CD018093CE019093CF016093C2010A
:102A70007093C3018093C4019093C50161E088E025
:102A80000E94670360E089E00E94670361E084E0E0
:102A90000E94670361E087E00E94670360E085E0D1
:102AA0000E94670360E086E00E94670380911F0137
:102AB000882369F18FEF9FEF9093680280936702FC
:102AC000013319F480E3F816F1F00E9456068BE505
:102AD00092E00E948C0202979CF38BE592E00E94A8
:102AE0004A02082F8BE592E00E944A02F82E8BE5FD
:102AF00092E00E948C021816190614F78BE592E0FA
:102B00000E944A02F4CF82E691E00E94D30A8091AB
:102B1000C001882309F4D6C00E94E00A811105C0D3
:102B200083E0809320010E94470F1A8E8091E0017C
:102B30009091E101FC0124813581232B91F02081CA
:102B400031E03093EB0120930D021092EC011092D2
:102B50000E0221E041E050E0BE01665E7F4F0E9420
:102B6000610941E050E0CE0101967C01BC018091F9
:102B7000E0019091E1010E946D0A898190E0880F47
:102B8000892F881F990B892B09F49CC04BE050E0DA
:102B900062E671E0C7010E94BF18CE010A960E944A
:102BA000A409082FE981E154E331D8F40E2E000C7A
:102BB000FF0BE352FA4E0C94C01AAB17F115F11546
:102BC000BF17F115F015F115F115F1159F17F11556
:102BD000F115B217BD17BB17F115F115F115B9179E
:102BE00012E0CE0105960E94A409D82E48E050E0DC
:102BF00069E571E0C7010E94BF18C7010E94A409DE
:102C0000C82ECE0104960E94A409B82ECE010796C4
:102C10000E94A409382F86E0F70111928A95E9F7FE
:102C20002AE0832F622F0E94921A982F880F890F13
:102C3000880F830F8A838B2D0E94921A982F880FFA
:102C4000890F880F8B0D8B838C2D0E94921A982FE1
:102C5000880F890F880F8C0D8C838D2D0E94921AFE
:102C6000982F880F890F880F8D0D8E83812F0E94DA
:102C7000921A982F990F890F880F180F1F83802F92
:102C80000E94921A982F880F890F880F800F8887CB
:102C90008091E0019091E101FC012481358128308F
:102CA000310580F0208131E03093EB0120930D025B
:102CB0001092EC0110920E0221E048E050E0B701C2
:102CC0000E946109809119018823A1F00E94D60415
:102CD000811105C085E0809320010E94470F8091FB
:102CE0000C0190E00E94C9040E94B109811102C048
:102CF0000E94470F0E94A70684E48093D9028BEAC2
:102D000092E09093D8028093D7020E94A70682EAAD
:102D100090E30E94A708811134C184E080932001D0
:102D20000E94470F61E087E00E941B034E01FAE119
:102D30008F0E911C80E0C82E80E0D82E0E9456068F
:102D40002B013C0180911F01882309F489C08091E7
:102D50001E01882361F18091D0019091D101A09151
:102D6000D201B091D301B301A201481B590B6A0BE8
:102D70007B0B80911A0190911B01A0911C01B091D5
:102D80001D01481759076A077B0788F00E94C10C8C
:102D9000811105C088E0809320010E94470F409276
:102DA000D0015092D1016092D2017092D3018091F2
:102DB0001901882361F18091CC019091CD01A091FE
:102DC000CE01B091CF01B301A201481B590B6A0B90
:102DD0007B0B8091150190911601A0911701B09184
:102DE0001801481759076A077B0788F00E949D0D54
:102DF000811105C08AE0809320010E94470F409214
:102E0000CC015092CD016092CE017092CF018BE542
:102E100092E00E948C021816190614F5CE01019654
:102E20007C0110E000E05C018BE592E00E944A0228
:102E3000F70181937F018A3009F0AAC00A0D1B1D9A
:102E4000F80110828981813309F0B3C08A8181330E
:102E500009F0E3C08B81813309F0B2C010921F01E9
:102E60008091CB01811104C08091CA01882349F16E
:102E70008091C6019091C701A091C801B091C9018C
:102E8000B301A201481B590B6A0B7B0B8091110106
:102E900090911201A0911301B091140148175907A4
:102EA0006A077B0770F00E94C709811102C00E9467
:102EB000470F4092C6015092C7016092C8017092BC
:102EC000C9018091C2019091C301A091C401B09148
:102ED000C501B301A201481B590B6A0B7B0B809102
:102EE0000D0190910E01A0910F01B09110014817B2
:102EF00059076A077B07E0F080911E01882331F0B3
:102F00000E941F0A811102C00E94470F809119017F
:102F1000882331F00E94B109811102C00E94470F3D
:102F20004092C2015092C3016092C4017092C501E7
:102F3000C114D10409F402CF0E940000FBCE8A81A3
:102F400011E0813609F44DCE8B8117E08E3609F001
:102F500048CE16E046CE8B8118E0823709F041CE8C
:102F600014E03FCE8B8115E0823709F03ACE13E0B2
:102F700038CE19E036CE1AE034CE1BE032CE1CE05B
:102F800030CE61E070E080E090E00E949505CACE0E
:102F90000F5F1F4F0D30110509F046CF8091C10121
:102FA000882309F45DCF8DE0809320010E94470FB4
:102FB00057CF8091C101882309F452CF8EE0F4CF1E
:102FC000EEE1F1E08333A1F0E9E1F1E0843381F057
:102FD000EAECF1E0853361F0EBECF1E0863341F0AF
:102FE000EFEBF1E0873321F0E0ECF1E0883349F0DA
:102FF0008C81803349F48081882309F431CF108299
:103000002FCFE1ECF1E0F4CF813309F029CF8081BB
:10301000811126CF81E0808323CF823369F53091FF
:10302000C101DE011496FE013F96CF012D9121933F
:1030300040ED420F4A3030F02A3021F0332311F0B6
:103040008FE0B2CF8E169F0689F72B810AE111E03F
:10305000213351F005E111E0223331F00DE011E0B0
:10306000233311F001E111E00E949818F801608308
:10307000718382839383F4CE8333D9F48B8190ED73
:10308000980F983030F08091C101882309F4E8CE80
:10309000D7CF082E000C990B0E947A1880930C0150
:1030A00099270E94C9040E94B1098111D9CE87E0F5
:1030B0007BCF843399F48091190181110AC08091EA
:1030C0001E01882359F00E941F0A8111C9CE88E091
:1030D0006BCF0E94B1098111F2CF68CF8091BF01FF
:1030E0006ACF8091BA029091BB02009711F00C94C4
:1030F000621B0895FC0188279927E89421912032CA
:10310000E9F3293010F02E30C8F32B3241F02D3284
:1031100039F4689404C00E94DD18820F911D21913A
:1031200020532A30C0F31EF4909581959F4F089547
:103130001F93FC0199278827BC01E8941191103254
:10314000E9F3193010F01E30C8F31B3251F01D3274
:1031500049F4689406C00E94C818610F711D811D52
:10316000911D119110531A30B0F33EF49095809553
:10317000709561957F4F8F4F9F4F1F910895FB0171
:10318000DC0102C005900D9241505040D8F70895DF
:10319000592F482F372F262F660F771F881F991F0B
:1031A000660F771F881F991F620F731F841F951F5B
:1031B000660F771F881F991F08957AE0979F902DBB
:1031C000879F802D910D11240895BB27FA01A62F0A
:1031D0006217710581059105330B30FB66F0AA2754
:1031E000660F771F881F991FAA1FA21710F0A21B36
:1031F00063953850A9F7A05DAA3308F0A95DA193A3
:1032000036F7B111B1931082CA010C942119BB2772
:10321000FB015527AA27880F991FAA1FA41710F092
:10322000A41B83955051B9F7A05DAA3308F0A95D9E
:10323000A193009779F7B111B1931192CB010C943E
:103240002119DC01FC01672F71917723E1F7329797
:1032500004C07C916D9370836291AE17BF07C8F371
:103260000895E89409C097FB3EF490958095709579
:1032700061957F4F8F4F9F4F9923A9F0F92F96E9C2
:10328000BB279395F695879577956795B795F11137
:10329000F8CFFAF4BB0F11F460FF1BC06F5F7F4FD4
:1032A0008F4F9F4F16C0882311F096E911C07723E6
:1032B00021F09EE8872F762F05C0662371F096E8EF
:1032C000862F70E060E02AF09A95660F771F881FBE
:1032D000DAF7880F9695879597F908950E948119D6
:1032E0000C94F2190E94E41938F00E94EB1920F0B6
:1032F000952311F00C94DB190C94E11911240C9412
:10330000261A0E94031A70F3959FC1F3950F50E09F
:10331000551F629FF001729FBB27F00DB11D639F87
:10332000AA27F00DB11DAA1F649F6627B00DA11D2D
:10333000661F829F2227B00DA11D621F739FB00DD3
:10334000A11D621F839FA00D611D221F749F332743
:10335000A00D611D231F849F600D211D822F762FDC
:103360006A2F11249F5750409AF0F1F088234AF0B9
:10337000EE0FFF1FBB1F661F771F881F9150504025
:10338000A9F79E3F510580F00C94DB190C94261A86
:103390005F3FE4F3983ED4F3869577956795B795AC
:1033A000F795E7959F5FC1F7FE2B880F911D9695C6
:1033B000879597F9089597F99F6780E870E060E036
:1033C00008959FEF80EC089500240A9416161706BE
:1033D00018060906089500240A9412161306140606
:1033E00005060895092E0394000C11F4882352F069
:1033F000BB0F40F4BF2B11F460FF04C06F5F7F4F21
:103400008F4F9F4F089557FD9058440F551F59F007
:103410005F3F71F04795880F97FB991F61F09F3FC1
:1034200079F087950895121613061406551FF2CFEA
:103430004695F1DF08C0161617061806991FF1CF3A
:1034400086957105610508940895E894BB27662761
:103450007727CB0197F908952F923F924F925F9271
:103460006F927F928F929F92AF92BF92CF92DF9294
:10347000EF92FF920F931F93CF93DF93CDB7DEB7F9
:10348000CA1BDB0B0FB6F894DEBF0FBECDBF09948D
:103490002A88398848885F846E847D848C849B84E4
:1034A000AA84B984C884DF80EE80FD800C811B81F2
:1034B000AA81B981CE0FD11D0FB6F894DEBF0FBE21
:1034C000CDBFED0108950E940B1A88F09F5798F028
:1034D000B92F9927B751B0F0E1F0660F771F881F19
:1034E000991F1AF0BA95C9F714C0B13091F00E9433
:1034F000251AB1E008950C94251A672F782F882794
:10350000B85F39F0B93FCCF3869577956795B39559
:10351000D9F73EF490958095709561957F4F8F4FC8
:103520009F4F0895991B79E004C0991F961708F0E2
:10353000961B881F7A95C9F780950895A1E21A2EE7
:10354000AA1BBB1BFD010DC0AA1FBB1FEE1FFF1F47
:10355000A217B307E407F50720F0A21BB30BE40B97
:10356000F50B661F771F881F991F1A9469F76095DE
:103570007095809590959B01AC01BD01CF01089598
:10358000EE0FFF1F0590F491E02D09940F931F9308
:10359000CF93DF938230910510F482E090E0E091C8
:1035A000F402F091F50230E020E0B0E0A0E03097C6
:1035B00099F42115310509F44AC0281B390B243030
:1035C0003105D8F58A819B816115710589F1FB016F
:1035D00093838283FE0111C0408151810281138156
:1035E00048175907E0F04817590799F4109761F008
:1035F00012960C93129713961C933296CF01DF917B
:10360000CF911F910F9108950093F4021093F5024A
:10361000F4CF2115310551F04217530738F0A901B5
:10362000DB019A01BD01DF01F801C1CFEF01F9CF44
:103630009093F5028093F402CDCFFE01E20FF31FC9
:10364000819391932250310939832883D7CF2091D8
:10365000F2023091F302232B41F4209123013091A7
:1036600024013093F3022093F20220912101309142
:1036700022012115310541F42DB73EB740912501B6
:1036800050912601241B350BE091F202F091F302D8
:10369000E217F307A0F42E1B3F0B2817390778F029
:1036A000AC014E5F5F4F2417350748F04E0F5F1F88
:1036B0005093F3024093F202819391939FCFF0E0F5
:1036C000E0E09CCFCF93DF930097E9F0FC013297C5
:1036D00013821282A091F402B091F502ED0130E064
:1036E00020E01097A1F420813181820F931F209157
:1036F000F2023091F3022817390709F061C0F09304
:10370000F302E093F202DF91CF910895EA01CE1720
:10371000DF07E8F54A815B819E0141155105B1F74C
:10372000E901FB83EA8349915991C40FD51FEC1736
:10373000FD0761F4808191810296840F951FE90154
:1037400099838883828193819B838A83F0E0E0E080
:1037500012968D919C9113970097B9F52D913C91FC
:103760001197CD010296820F931F2091F2023091A2
:10377000F3022817390739F6309751F51092F50200
:103780001092F402B093F302A093F202BCCFD38361
:10379000C28340815181840F951FC817D90761F4F6
:1037A0004E5F5F4F88819981480F591F5183408335
:1037B0008A819B81938382832115310509F0B0CFE3
:1037C000F093F502E093F4029ECFFD01DC01C0CF3F
:1037D00013821282D7CFB0E0A0E0E1EFFBE10C94BE
:1037E0002E1A8C01009751F4CB010E94C61A8C014D
:1037F000C801CDB7DEB7E0E10C944A1AFC01E60F30
:10380000F71F9C0122503109E217F30708F49DC00D
:10381000D901CD91DC911197C617D70798F0C53023
:10382000D10530F3CE0104978617970708F3C61B1E
:10383000D70B2297C193D1936D937C93CF010E94B4
:10384000621BD6CF5B01AC1ABD0A4C018C0E9D1ECB
:10385000A091F402B091F502512C412CF12CE12CF5
:10386000109731F58091F2029091F3028815990535
:1038700009F05CC04616570608F058C08091210137
:1038800090912201009741F48DB79EB74091250198
:1038900050912601841B950BE817F90708F055C0D5
:1038A000F093F302E093F202F90171836083A0CFF9
:1038B0008D919C91119712966C90129713967C9013
:1038C0001397A815B90559F56C0142E0C40ED11C37
:1038D000CA14DB0420F1AC014A195B09DA01129623
:1038E000159780F06282738251834083D9016D9372
:1038F0007C93E114F10471F0D7011396FC93EE93DD
:10390000129776CF22968C0F9D1FF90191838083A9
:10391000F301EFCFF093F502E093F40269CF48167C
:10392000590608F42C017D01D3019ACFCB010E94E6
:10393000C61A7C01009749F0AE01B8010E94A81C8C
:10394000C8010E94621B870153CF10E000E050CFF6
:10395000FB01DC0102C001900D9241505040D8F7AC
:103960000895FB01DC0101900D920020E1F708951C
:1039700010E0CEEDD0E004C0FE010E94C01A2196F6
:0A398000CF3DD107C9F7F894FFCF3F
:10398A00FFFFFFFF00E100000000000003701700C6
:10399A0000E8030000E803000001E8030000010159
:1039AA00010000F602800000C180810000000000D2
:1039BA0000002002C80546023B028C024A02680245
:1039CA00000000002F0902095E093501FB08E8081A
:1039DA00D90830320030330030340030390030300A
:0A39EA000A0030310A0030380000F6
:00000001FF
